:020000000B28CB
:10000800CE00030E83128F000A089000DE280C2809
:1000180083129E019F01A001A1018301472901309C
:1000280083129E0000309F0049289401861686108E
:1000380082309200DD309100910B2028920B20280D
:10004800252883128612861482309200DD309100B2
:10005800910B2C28920B2C28312801308312910007
:100068001108940705301402031C3B283C281A2861
:100078000630930013309200AD309100910B422866
:10008800920B4228930B4228492883122008210406
:1000980003194F28502819288611A001A1019E0193
:1000A8009F010800013083129E0000309F007728CE
:1000B8008616861182309200DD309100910B6228FD
:1000C800920B6228672883128615861203309300E4
:1000D8008A30920055309100910B7028920B70284D
:1000E800930B7028772883122008210403197D2890
:1000F8007E285C288615A001A1019E019F010800A9
:1001080083129C019D019C2806309B0013309A00A5
:10011800AD309900990B8E289A0B8E289B0B8E2850
:100128009528013083129C0703189D0A00309D070B
:1001380018089200170891003C3093000030940092
:100148000721831212081D02031DAC2811081C0286
:10015800031CAF28B028882808008312940186164B
:1001680006110230930004309200BA309100910BCE
:10017800BB28920BBB28930BBB2800008312861266
:1001880006150230930004309200BA309100910BAA
:10019800CB28920BCB28930BCB280000013083127D
:1001A80091001108940703301402031CDC28DD2891
:1001B800B32808000B1DE128E228FF280B11061AB6
:1001C800E628E728FF281E081F040319EC28ED2855
:1001D800FF280130A0000030A1009E019F010330DC
:1001E8008E0008308D0077308C008C0BF9288D0B31
:1001F800F9288E0BF928831210088A000F0E830045
:10020800CE0E4E0E0900831295019601111C0D2980
:100218000E291429130895070318960A1408960737
:1002280001300310930D940DFF3E031D1529013075
:100238000310920C910CFF3E031D1C291108120497
:10024800031D272928290A29160892001508910054
:1002580008008316861006118611061686128B175B
:100268008B160B11811281110730810483128101D1
:100278008614061586158612B12083129E019F01E9
:10028800A001A10108002D21193083129700003028
:1002980098008420132005308312970000309800BE
:0802A8008420562048290B2890
:02400E00F93F78
:00000001FF
